{
  "contractName": "BNBSwap",
  "abi": [
    {
      "inputs": [
        {
          "internalType": "contract BEP20Token",
          "name": "token",
          "type": "address"
        }
      ],
      "payable": false,
      "stateMutability": "nonpayable",
      "type": "constructor"
    },
    {
      "anonymous": false,
      "inputs": [
        {
          "indexed": true,
          "internalType": "address",
          "name": "previousOwner",
          "type": "address"
        },
        {
          "indexed": true,
          "internalType": "address",
          "name": "newOwner",
          "type": "address"
        }
      ],
      "name": "OwnershipTransferred",
      "type": "event"
    },
    {
      "anonymous": false,
      "inputs": [
        {
          "indexed": true,
          "internalType": "address",
          "name": "account",
          "type": "address"
        },
        {
          "indexed": true,
          "internalType": "address",
          "name": "token",
          "type": "address"
        },
        {
          "indexed": false,
          "internalType": "uint256",
          "name": "amount",
          "type": "uint256"
        },
        {
          "indexed": false,
          "internalType": "uint256",
          "name": "rate",
          "type": "uint256"
        }
      ],
      "name": "TokensPurchased",
      "type": "event"
    },
    {
      "anonymous": false,
      "inputs": [
        {
          "indexed": true,
          "internalType": "address",
          "name": "account",
          "type": "address"
        },
        {
          "indexed": true,
          "internalType": "address",
          "name": "token",
          "type": "address"
        },
        {
          "indexed": false,
          "internalType": "uint256",
          "name": "amount",
          "type": "uint256"
        },
        {
          "indexed": false,
          "internalType": "uint256",
          "name": "rate",
          "type": "uint256"
        }
      ],
      "name": "TokensSold",
      "type": "event"
    },
    {
      "constant": true,
      "inputs": [],
      "name": "owner",
      "outputs": [
        {
          "internalType": "address",
          "name": "",
          "type": "address"
        }
      ],
      "payable": false,
      "stateMutability": "view",
      "type": "function"
    },
    {
      "constant": false,
      "inputs": [],
      "name": "renounceOwnership",
      "outputs": [],
      "payable": false,
      "stateMutability": "nonpayable",
      "type": "function"
    },
    {
      "constant": false,
      "inputs": [
        {
          "internalType": "address",
          "name": "newOwner",
          "type": "address"
        }
      ],
      "name": "transferOwnership",
      "outputs": [],
      "payable": false,
      "stateMutability": "nonpayable",
      "type": "function"
    },
    {
      "constant": true,
      "inputs": [],
      "name": "name",
      "outputs": [
        {
          "internalType": "string",
          "name": "",
          "type": "string"
        }
      ],
      "payable": false,
      "stateMutability": "view",
      "type": "function"
    },
    {
      "constant": true,
      "inputs": [],
      "name": "rate",
      "outputs": [
        {
          "internalType": "uint256",
          "name": "",
          "type": "uint256"
        }
      ],
      "payable": false,
      "stateMutability": "view",
      "type": "function"
    },
    {
      "constant": false,
      "inputs": [],
      "name": "buyTokens",
      "outputs": [
        {
          "internalType": "bool",
          "name": "",
          "type": "bool"
        }
      ],
      "payable": true,
      "stateMutability": "payable",
      "type": "function"
    },
    {
      "constant": false,
      "inputs": [
        {
          "internalType": "uint256",
          "name": "value",
          "type": "uint256"
        }
      ],
      "name": "sellTokens",
      "outputs": [
        {
          "internalType": "bool",
          "name": "",
          "type": "bool"
        }
      ],
      "payable": true,
      "stateMutability": "payable",
      "type": "function"
    }
  ],
  "bytecode": "0x60806040523480156200001157600080fd5b506040516200116e3803806200116e833981810160405260208110156200003757600080fd5b810190808051906020019092919050505060006200005a6200019660201b60201c565b9050806000806101000a81548173ffffffffffffffffffffffffffffffffffffffff021916908373ffffffffffffffffffffffffffffffffffffffff1602179055508073ffffffffffffffffffffffffffffffffffffffff16600073ffffffffffffffffffffffffffffffffffffffff167f8be0079c531659141344cd1fd0a4f28419497f9722a3daafe3b4186f6b6457e060405160405180910390a35080600160006101000a81548173ffffffffffffffffffffffffffffffffffffffff021916908373ffffffffffffffffffffffffffffffffffffffff1602179055506040518060400160405280601981526020017f424e42205377617020496e7374616e742045786368616e67650000000000000081525060029080519060200190620001869291906200019e565b506064600381905550506200024d565b600033905090565b828054600181600116156101000203166002900490600052602060002090601f016020900481019282601f10620001e157805160ff191683800117855562000212565b8280016001018555821562000212579182015b8281111562000211578251825591602001919060010190620001f4565b5b50905062000221919062000225565b5090565b6200024a91905b80821115620002465760008160009055506001016200022c565b5090565b90565b610f11806200025d6000396000f3fe6080604052600436106100705760003560e01c8063715018a61161004e578063715018a6146101765780638da5cb5b1461018d578063d0febe4c146101e4578063f2fde38b1461020657610070565b806306fdde03146100755780632c4e722e146101055780636c11bcd314610130575b600080fd5b34801561008157600080fd5b5061008a610257565b6040518080602001828103825283818151815260200191508051906020019080838360005b838110156100ca5780820151818401526020810190506100af565b50505050905090810190601f1680156100f75780820380516001836020036101000a031916815260200191505b509250505060405180910390f35b34801561011157600080fd5b5061011a6102f9565b6040518082815260200191505060405180910390f35b61015c6004803603602081101561014657600080fd5b8101908080359060200190929190505050610303565b604051808215151515815260200191505060405180910390f35b34801561018257600080fd5b5061018b61031f565b005b34801561019957600080fd5b506101a26104a7565b604051808273ffffffffffffffffffffffffffffffffffffffff1673ffffffffffffffffffffffffffffffffffffffff16815260200191505060405180910390f35b6101ec6104d0565b604051808215151515815260200191505060405180910390f35b34801561021257600080fd5b506102556004803603602081101561022957600080fd5b81019080803573ffffffffffffffffffffffffffffffffffffffff1690602001909291905050506104f1565b005b606060028054600181600116156101000203166002900480601f0160208091040260200160405190810160405280929190818152602001828054600181600116156101000203166002900480156102ef5780601f106102c4576101008083540402835291602001916102ef565b820191906000526020600020905b8154815290600101906020018083116102d257829003601f168201915b5050505050905090565b6000600354905090565b60006103166103106105c6565b836105ce565b60019050919050565b6103276105c6565b73ffffffffffffffffffffffffffffffffffffffff166000809054906101000a900473ffffffffffffffffffffffffffffffffffffffff1673ffffffffffffffffffffffffffffffffffffffff16146103e8576040517f08c379a00000000000000000000000000000000000000000000000000000000081526004018080602001828103825260208152602001807f4f776e61626c653a2063616c6c6572206973206e6f7420746865206f776e657281525060200191505060405180910390fd5b600073ffffffffffffffffffffffffffffffffffffffff166000809054906101000a900473ffffffffffffffffffffffffffffffffffffffff1673ffffffffffffffffffffffffffffffffffffffff167f8be0079c531659141344cd1fd0a4f28419497f9722a3daafe3b4186f6b6457e060405160405180910390a360008060006101000a81548173ffffffffffffffffffffffffffffffffffffffff021916908373ffffffffffffffffffffffffffffffffffffffff160217905550565b60008060009054906101000a900473ffffffffffffffffffffffffffffffffffffffff16905090565b60006104ea6104dd6105c6565b6104e56108d0565b6108d8565b6001905090565b6104f96105c6565b73ffffffffffffffffffffffffffffffffffffffff166000809054906101000a900473ffffffffffffffffffffffffffffffffffffffff1673ffffffffffffffffffffffffffffffffffffffff16146105ba576040517f08c379a00000000000000000000000000000000000000000000000000000000081526004018080602001828103825260208152602001807f4f776e61626c653a2063616c6c6572206973206e6f7420746865206f776e657281525060200191505060405180910390fd5b6105c381610bbb565b50565b600033905090565b80600160009054906101000a900473ffffffffffffffffffffffffffffffffffffffff1673ffffffffffffffffffffffffffffffffffffffff166370a08231846040518263ffffffff1660e01b8152600401808273ffffffffffffffffffffffffffffffffffffffff1673ffffffffffffffffffffffffffffffffffffffff16815260200191505060206040518083038186803b15801561066e57600080fd5b505afa158015610682573d6000803e3d6000fd5b505050506040513d602081101561069857600080fd5b810190808051906020019092919050505010156106b457600080fd5b60006106cb60035483610cff90919063ffffffff16565b9050804710156106da57600080fd5b600160009054906101000a900473ffffffffffffffffffffffffffffffffffffffff1673ffffffffffffffffffffffffffffffffffffffff166323b872dd8430856040518463ffffffff1660e01b8152600401808473ffffffffffffffffffffffffffffffffffffffff1673ffffffffffffffffffffffffffffffffffffffff1681526020018373ffffffffffffffffffffffffffffffffffffffff1673ffffffffffffffffffffffffffffffffffffffff1681526020018281526020019350505050602060405180830381600087803b1580156107b757600080fd5b505af11580156107cb573d6000803e3d6000fd5b505050506040513d60208110156107e157600080fd5b8101908080519060200190929190505050508273ffffffffffffffffffffffffffffffffffffffff166108fc829081150290604051600060405180830381858888f19350505050158015610839573d6000803e3d6000fd5b50600160009054906101000a900473ffffffffffffffffffffffffffffffffffffffff1673ffffffffffffffffffffffffffffffffffffffff168373ffffffffffffffffffffffffffffffffffffffff167f697c42d55a5e1fed3f464ec6f38b32546a0bd368dc8068b065c67566d73f329084600354604051808381526020018281526020019250505060405180910390a3505050565b600034905090565b60006108ef60035483610d4990919063ffffffff16565b905080600160009054906101000a900473ffffffffffffffffffffffffffffffffffffffff1673ffffffffffffffffffffffffffffffffffffffff166370a08231306040518263ffffffff1660e01b8152600401808273ffffffffffffffffffffffffffffffffffffffff1673ffffffffffffffffffffffffffffffffffffffff16815260200191505060206040518083038186803b15801561099157600080fd5b505afa1580156109a5573d6000803e3d6000fd5b505050506040513d60208110156109bb57600080fd5b81019080805190602001909291905050501015610a40576040517f08c379a000000000000000000000000000000000000000000000000000000000815260040180806020018281038252601b8152602001807f4e6f7420656e6f75676820746f6b656e7320617661696c61626c65000000000081525060200191505060405180910390fd5b600160009054906101000a900473ffffffffffffffffffffffffffffffffffffffff1673ffffffffffffffffffffffffffffffffffffffff1663a9059cbb84836040518363ffffffff1660e01b8152600401808373ffffffffffffffffffffffffffffffffffffffff1673ffffffffffffffffffffffffffffffffffffffff16815260200182815260200192505050602060405180830381600087803b158015610ae957600080fd5b505af1158015610afd573d6000803e3d6000fd5b505050506040513d6020811015610b1357600080fd5b810190808051906020019092919050505050600160009054906101000a900473ffffffffffffffffffffffffffffffffffffffff1673ffffffffffffffffffffffffffffffffffffffff168373ffffffffffffffffffffffffffffffffffffffff167f6faf93231a456e552dbc9961f58d9713ee4f2e69d15f1975b050ef0911053a7b83600354604051808381526020018281526020019250505060405180910390a3505050565b600073ffffffffffffffffffffffffffffffffffffffff168173ffffffffffffffffffffffffffffffffffffffff161415610c41576040517f08c379a0000000000000000000000000000000000000000000000000000000008152600401808060200182810382526026815260200180610e966026913960400191505060405180910390fd5b8073ffffffffffffffffffffffffffffffffffffffff166000809054906101000a900473ffffffffffffffffffffffffffffffffffffffff1673ffffffffffffffffffffffffffffffffffffffff167f8be0079c531659141344cd1fd0a4f28419497f9722a3daafe3b4186f6b6457e060405160405180910390a3806000806101000a81548173ffffffffffffffffffffffffffffffffffffffff021916908373ffffffffffffffffffffffffffffffffffffffff16021790555050565b6000610d4183836040518060400160405280601a81526020017f536166654d6174683a206469766973696f6e206279207a65726f000000000000815250610dcf565b905092915050565b600080831415610d5c5760009050610dc9565b6000828402905082848281610d6d57fe5b0414610dc4576040517f08c379a0000000000000000000000000000000000000000000000000000000008152600401808060200182810382526021815260200180610ebc6021913960400191505060405180910390fd5b809150505b92915050565b60008083118290610e7b576040517f08c379a00000000000000000000000000000000000000000000000000000000081526004018080602001828103825283818151815260200191508051906020019080838360005b83811015610e40578082015181840152602081019050610e25565b50505050905090810190601f168015610e6d5780820380516001836020036101000a031916815260200191505b509250505060405180910390fd5b506000838581610e8757fe5b04905080915050939250505056fe4f776e61626c653a206e6577206f776e657220697320746865207a65726f2061646472657373536166654d6174683a206d756c7469706c69636174696f6e206f766572666c6f77a265627a7a72315820fbd5a0d6d121fd634c13844c9fde9558bbd9e00f804ffb588a420c53fc47e02564736f6c63430005100032",
  "source": "pragma solidity ^0.5.16;\n\nimport \"./BEP20Token.sol\";\nimport \"./Context.sol\";\nimport \"./IBNBSwap.sol\";\nimport \"./Ownable.sol\";\nimport \"./SafeMath.sol\";\n\ncontract BNBSwap is Context, IBNBSwap, Ownable {\n    using SafeMath for uint256;\n\n    BEP20Token private _token;\n\n    string private _name;\n    uint256 private _rate;\n\n    constructor(BEP20Token token) public {\n        _token = token;\n        _name = \"BNB Swap Instant Exchange\";\n        _rate = 100;\n    }\n\n    /**\n     * @dev Returns the name.\n     */\n    function name() external view returns(string memory) {\n        return _name;\n    }\n\n    /**\n     * @dev Returns the rate.\n     */\n    function rate() external view returns(uint256) {\n        return _rate;\n    }\n\n    /**\n     * @dev Returns true if successful.\n     */\n    function buyTokens() external payable returns(bool) {\n        _buyTokens(_msgSender(), _msgValue());\n        return true;\n    }\n\n    /**\n     * @dev Returns true if successful.\n     * @param value Tokens amount.\n     */\n    function sellTokens(uint256 value) external payable returns(bool) {\n        _sellTokens(_msgSender(), value);\n        return true;\n    }\n\n    /**\n     * @param sender Sender's address.\n     * @param value Sender's value.\n     */\n    function _buyTokens(address sender, uint256 value) internal {\n        uint256 _tokenAmount = value.mul(_rate);\n        require(_token.balanceOf(address(this)) >= _tokenAmount, \"Not enough tokens available\");\n        _token.transfer(sender, _tokenAmount);\n        emit TokensPurchased(sender, address(_token), _tokenAmount, _rate);\n    }\n\n    /**\n     * @param sender Sender's address.\n     * @param value Sender's value.\n     */\n    function _sellTokens(address payable sender, uint256 value) internal {\n        require(_token.balanceOf(sender) >= value);\n        uint256 _bnbAmount = value.div(_rate);\n        require(address(this).balance >= _bnbAmount);\n        _token.transferFrom(sender, address(this), value);\n        sender.transfer(_bnbAmount);\n        emit TokensSold(sender, address(_token), value, _rate);\n    }\n}",
  "sourcePath": "/root/BlockchainProjects/cryptocurrency-swap/contracts/BNBSwap.sol",
  "compiler": {
    "name": "solc",
    "version": "0.5.16+commit.9c3226ce.Emscripten.clang"
  },
  "schemaVersion": "3.4.3",
  "updatedAt": "2021-12-03T13:42:41.284Z",
  "networkType": "ethereum",
  "devdoc": {
    "methods": {
      "buyTokens()": {
        "details": "Returns true if successful."
      },
      "name()": {
        "details": "Returns the name."
      },
      "owner()": {
        "details": "Returns the address of the current owner."
      },
      "rate()": {
        "details": "Returns the rate."
      },
      "renounceOwnership()": {
        "details": "Leaves the contract without owner. It will not be possible to call `onlyOwner` functions anymore. Can only be called by the current owner.     * NOTE: Renouncing ownership will leave the contract without an owner, thereby removing any functionality that is only available to the owner."
      },
      "sellTokens(uint256)": {
        "details": "Returns true if successful.",
        "params": {
          "value": "Tokens amount."
        }
      },
      "transferOwnership(address)": {
        "details": "Transfers ownership of the contract to a new account (`newOwner`). Can only be called by the current owner."
      }
    }
  },
  "userdoc": {
    "methods": {}
  }
}